{
  "_format": "hh-sol-artifact-1",
  "contractName": "Exam",
  "sourceName": "contracts/Exam.sol",
  "abi": [
    {
      "inputs": [
        {
          "internalType": "address",
          "name": "",
          "type": "address"
        }
      ],
      "name": "answerHashMap",
      "outputs": [
        {
          "internalType": "bytes32",
          "name": "",
          "type": "bytes32"
        }
      ],
      "stateMutability": "view",
      "type": "function"
    },
    {
      "inputs": [
        {
          "internalType": "address",
          "name": "",
          "type": "address"
        }
      ],
      "name": "answerMap",
      "outputs": [
        {
          "internalType": "bytes",
          "name": "",
          "type": "bytes"
        }
      ],
      "stateMutability": "view",
      "type": "function"
    },
    {
      "inputs": [
        {
          "internalType": "address",
          "name": "sender",
          "type": "address"
        }
      ],
      "name": "calculateScore",
      "outputs": [
        {
          "internalType": "uint8",
          "name": "score",
          "type": "uint8"
        }
      ],
      "stateMutability": "nonpayable",
      "type": "function"
    },
    {
      "inputs": [
        {
          "internalType": "bytes32",
          "name": "_answerHash",
          "type": "bytes32"
        },
        {
          "internalType": "address",
          "name": "_sender",
          "type": "address"
        }
      ],
      "name": "commitAnswer",
      "outputs": [],
      "stateMutability": "nonpayable",
      "type": "function"
    },
    {
      "inputs": [],
      "name": "correctAnswerHash",
      "outputs": [
        {
          "internalType": "bytes32",
          "name": "",
          "type": "bytes32"
        }
      ],
      "stateMutability": "view",
      "type": "function"
    },
    {
      "inputs": [],
      "name": "corrects",
      "outputs": [
        {
          "internalType": "bytes",
          "name": "",
          "type": "bytes"
        }
      ],
      "stateMutability": "view",
      "type": "function"
    },
    {
      "inputs": [],
      "name": "description",
      "outputs": [
        {
          "internalType": "string",
          "name": "",
          "type": "string"
        }
      ],
      "stateMutability": "view",
      "type": "function"
    },
    {
      "inputs": [
        {
          "internalType": "string",
          "name": "_title",
          "type": "string"
        },
        {
          "internalType": "string",
          "name": "_description",
          "type": "string"
        },
        {
          "internalType": "uint64",
          "name": "_submitStartTime",
          "type": "uint64"
        },
        {
          "internalType": "uint64",
          "name": "_submitEndTime",
          "type": "uint64"
        },
        {
          "internalType": "uint8",
          "name": "_passScore",
          "type": "uint8"
        }
      ],
      "name": "init",
      "outputs": [],
      "stateMutability": "nonpayable",
      "type": "function"
    },
    {
      "inputs": [],
      "name": "owner",
      "outputs": [
        {
          "internalType": "address",
          "name": "",
          "type": "address"
        }
      ],
      "stateMutability": "view",
      "type": "function"
    },
    {
      "inputs": [],
      "name": "passScore",
      "outputs": [
        {
          "internalType": "uint8",
          "name": "",
          "type": "uint8"
        }
      ],
      "stateMutability": "view",
      "type": "function"
    },
    {
      "inputs": [],
      "name": "points",
      "outputs": [
        {
          "internalType": "bytes",
          "name": "",
          "type": "bytes"
        }
      ],
      "stateMutability": "view",
      "type": "function"
    },
    {
      "inputs": [],
      "name": "pointsMultiplier",
      "outputs": [
        {
          "internalType": "bytes",
          "name": "",
          "type": "bytes"
        }
      ],
      "stateMutability": "view",
      "type": "function"
    },
    {
      "inputs": [],
      "name": "questionTypes",
      "outputs": [
        {
          "internalType": "bytes",
          "name": "",
          "type": "bytes"
        }
      ],
      "stateMutability": "view",
      "type": "function"
    },
    {
      "inputs": [],
      "name": "questions",
      "outputs": [
        {
          "internalType": "bytes",
          "name": "",
          "type": "bytes"
        }
      ],
      "stateMutability": "view",
      "type": "function"
    },
    {
      "inputs": [
        {
          "internalType": "bytes",
          "name": "_corrects",
          "type": "bytes"
        },
        {
          "internalType": "bytes",
          "name": "_points",
          "type": "bytes"
        },
        {
          "internalType": "bytes",
          "name": "_pointsMultiplier",
          "type": "bytes"
        },
        {
          "internalType": "bytes32",
          "name": "_salt",
          "type": "bytes32"
        },
        {
          "internalType": "address",
          "name": "_sender",
          "type": "address"
        }
      ],
      "name": "revealCorrectAnswer",
      "outputs": [],
      "stateMutability": "nonpayable",
      "type": "function"
    },
    {
      "inputs": [
        {
          "internalType": "bytes",
          "name": "_questionTypes",
          "type": "bytes"
        },
        {
          "internalType": "bytes",
          "name": "_questions",
          "type": "bytes"
        },
        {
          "internalType": "bytes32",
          "name": "_correctAnswerHash",
          "type": "bytes32"
        },
        {
          "internalType": "address",
          "name": "_sender",
          "type": "address"
        }
      ],
      "name": "revealQuestion",
      "outputs": [],
      "stateMutability": "nonpayable",
      "type": "function"
    },
    {
      "inputs": [
        {
          "internalType": "address",
          "name": "",
          "type": "address"
        }
      ],
      "name": "scoreMap",
      "outputs": [
        {
          "internalType": "uint8",
          "name": "",
          "type": "uint8"
        }
      ],
      "stateMutability": "view",
      "type": "function"
    },
    {
      "inputs": [
        {
          "internalType": "address",
          "name": "_owner",
          "type": "address"
        }
      ],
      "name": "setOwner",
      "outputs": [],
      "stateMutability": "nonpayable",
      "type": "function"
    },
    {
      "inputs": [],
      "name": "submitEndTime",
      "outputs": [
        {
          "internalType": "uint64",
          "name": "",
          "type": "uint64"
        }
      ],
      "stateMutability": "view",
      "type": "function"
    },
    {
      "inputs": [],
      "name": "submitStartTime",
      "outputs": [
        {
          "internalType": "uint64",
          "name": "",
          "type": "uint64"
        }
      ],
      "stateMutability": "view",
      "type": "function"
    },
    {
      "inputs": [],
      "name": "title",
      "outputs": [
        {
          "internalType": "string",
          "name": "",
          "type": "string"
        }
      ],
      "stateMutability": "view",
      "type": "function"
    },
    {
      "inputs": [
        {
          "internalType": "bytes",
          "name": "_answers",
          "type": "bytes"
        },
        {
          "internalType": "bytes32",
          "name": "_salt",
          "type": "bytes32"
        },
        {
          "internalType": "address",
          "name": "sender",
          "type": "address"
        }
      ],
      "name": "verifyCommitAnswer",
      "outputs": [],
      "stateMutability": "nonpayable",
      "type": "function"
    }
  ],
  "bytecode": "0x608060405234801561001057600080fd5b50612538806100206000396000f3fe608060405234801561001057600080fd5b50600436106101425760003560e01c8063815d678d116100b8578063a21975bd1161007c578063a21975bd14610355578063a6925df414610371578063af2eb9811461038d578063bbab311a146103ab578063e2f7e0d4146103c9578063e72cb63d146103e757610142565b8063815d678d146102b157806386cdb33d146102cd5780638da5cb5b146102eb57806396482b67146103095780639c0c935c1461032557610142565b80633d19304b1161010a5780633d19304b146101fd57806346aea5d51461021b5780634a79d50c146102395780636796a05d146102575780637284e4161461027557806377a498211461029357610142565b806313af4035146101475780631be6dd641461016357806322709a751461018157806323e957b6146101b15780632d3aa5e3146101e1575b600080fd5b610161600480360381019061015c91906114ec565b610417565b005b61016b61045a565b60405161017891906115a9565b60405180910390f35b61019b600480360381019061019691906114ec565b6104e8565b6040516101a891906115e7565b60405180910390f35b6101cb60048036038101906101c691906114ec565b610508565b6040516101d891906115e7565b60405180910390f35b6101fb60048036038101906101f6919061169d565b610b5e565b005b610205610c21565b6040516102129190611767565b60405180910390f35b610223610c3b565b6040516102309190611767565b60405180910390f35b610241610c55565b60405161024e91906117d7565b60405180910390f35b61025f610ce3565b60405161026c91906115a9565b60405180910390f35b61027d610d71565b60405161028a91906117d7565b60405180910390f35b61029b610dff565b6040516102a891906115a9565b60405180910390f35b6102cb60048036038101906102c691906117f9565b610e8d565b005b6102d5610fcb565b6040516102e291906115a9565b60405180910390f35b6102f3611059565b60405161030091906118e4565b60405180910390f35b610323600480360381019061031e91906118ff565b61107d565b005b61033f600480360381019061033a91906114ec565b61118b565b60405161034c919061194e565b60405180910390f35b61036f600480360381019061036a9190611a17565b6111a3565b005b61038b60048036038101906103869190611ad3565b61123d565b005b61039561133d565b6040516103a291906115a9565b60405180910390f35b6103b36113cb565b6040516103c091906115e7565b60405180910390f35b6103d16113de565b6040516103de919061194e565b60405180910390f35b61040160048036038101906103fc91906114ec565b6113e4565b60405161040e91906115a9565b60405180910390f35b806000806101000a81548173ffffffffffffffffffffffffffffffffffffffff021916908373ffffffffffffffffffffffffffffffffffffffff16021790555050565b6008805461046790611b76565b80601f016020809104026020016040519081016040528092919081815260200182805461049390611b76565b80156104e05780601f106104b5576101008083540402835291602001916104e0565b820191906000526020600020905b8154815290600101906020018083116104c357829003601f168201915b505050505081565b600c6020528060005260406000206000915054906101000a900460ff1681565b60008060009050600080600a60003373ffffffffffffffffffffffffffffffffffffffff1673ffffffffffffffffffffffffffffffffffffffff168152602001908152602001600020805461055c90611b76565b80601f016020809104026020016040519081016040528092919081815260200182805461058890611b76565b80156105d55780601f106105aa576101008083540402835291602001916105d5565b820191906000526020600020905b8154815290600101906020018083116105b857829003601f168201915b5050505050905060005b600580546105ec90611b76565b9050811015610aa4576000600582815461060590611b76565b811061061457610613611ba7565b5b8154600116156106335790600052602060002090602091828204019190065b9054901a7f01000000000000000000000000000000000000000000000000000000000000000260f81c60ff16600381111561067157610670611bd6565b5b9050600080600381111561068857610687611bd6565b5b82600381111561069b5761069a611bd6565b5b036106a95760019050610779565b600160038111156106bd576106bc611bd6565b5b8260038111156106d0576106cf611bd6565b5b031561077857600260038111156106ea576106e9611bd6565b5b8260038111156106fd576106fc611bd6565b5b0361073d576040517f08c379a000000000000000000000000000000000000000000000000000000000815260040161073490611c51565b60405180910390fd5b6040517f08c379a000000000000000000000000000000000000000000000000000000000815260040161076f90611cbd565b60405180910390fd5b5b60008167ffffffffffffffff81111561079557610794611cdd565b5b6040519080825280601f01601f1916602001820160405280156107c75781602001600182028036833780820191505090505b50905060008267ffffffffffffffff8111156107e6576107e5611cdd565b5b6040519080825280601f01601f1916602001820160405280156108185781602001600182028036833780820191505090505b50905060005b8381101561094d578681896108339190611d45565b8151811061084457610843611ba7565b5b602001015160f81c60f81b83828151811061086257610861611ba7565b5b60200101907effffffffffffffffffffffffffffffffffffffffffffffffffffffffffffff1916908160001a9053506007818961089f9190611d45565b81546108aa90611b76565b81106108b9576108b8611ba7565b5b8154600116156108d85790600052602060002090602091828204019190065b9054901a7f01000000000000000000000000000000000000000000000000000000000000000282828151811061091157610910611ba7565b5b60200101907effffffffffffffffffffffffffffffffffffffffffffffffffffffffffffff1916908160001a905350808060010191505061081e565b506000818051906020012083805190602001201490508015610a7657600060088a815461097990611b76565b811061098857610987611ba7565b5b8154600116156109a75790600052602060002090602091828204019190065b9054901a7f01000000000000000000000000000000000000000000000000000000000000000260f81c9050600060098b81546109e290611b76565b81106109f1576109f0611ba7565b5b815460011615610a105790600052602060002090602091828204019190065b9054901a7f01000000000000000000000000000000000000000000000000000000000000000260f81c905060008160ff1603610a5a5760009b505050505050505050505050610b59565b8082610a669190611d79565b8c610a719190611db6565b9b5050505b8880610a8190611deb565b9950508388610a909190611d45565b9750505050505080806001019150506105df565b50600360009054906101000a900460ff1660ff168460ff161015610afd576040517f08c379a0000000000000000000000000000000000000000000000000000000008152600401610af490611e7f565b60405180910390fd5b83600c60008773ffffffffffffffffffffffffffffffffffffffff1673ffffffffffffffffffffffffffffffffffffffff16815260200190815260200160002060006101000a81548160ff021916908360ff1602179055505050505b919050565b808073ffffffffffffffffffffffffffffffffffffffff1660008054906101000a900473ffffffffffffffffffffffffffffffffffffffff1673ffffffffffffffffffffffffffffffffffffffff1614610bed576040517f08c379a0000000000000000000000000000000000000000000000000000000008152600401610be490611eeb565b60405180910390fd5b868660059182610bfe9291906120c2565b50848460049182610c109291906120c2565b508260068190555050505050505050565b600360019054906101000a900467ffffffffffffffff1681565b600360099054906101000a900467ffffffffffffffff1681565b60018054610c6290611b76565b80601f0160208091040260200160405190810160405280929190818152602001828054610c8e90611b76565b8015610cdb5780601f10610cb057610100808354040283529160200191610cdb565b820191906000526020600020905b815481529060010190602001808311610cbe57829003601f168201915b505050505081565b60078054610cf090611b76565b80601f0160208091040260200160405190810160405280929190818152602001828054610d1c90611b76565b8015610d695780601f10610d3e57610100808354040283529160200191610d69565b820191906000526020600020905b815481529060010190602001808311610d4c57829003601f168201915b505050505081565b60028054610d7e90611b76565b80601f0160208091040260200160405190810160405280929190818152602001828054610daa90611b76565b8015610df75780601f10610dcc57610100808354040283529160200191610df7565b820191906000526020600020905b815481529060010190602001808311610dda57829003601f168201915b505050505081565b60048054610e0c90611b76565b80601f0160208091040260200160405190810160405280929190818152602001828054610e3890611b76565b8015610e855780601f10610e5a57610100808354040283529160200191610e85565b820191906000526020600020905b815481529060010190602001808311610e6857829003601f168201915b505050505081565b808073ffffffffffffffffffffffffffffffffffffffff1660008054906101000a900473ffffffffffffffffffffffffffffffffffffffff1673ffffffffffffffffffffffffffffffffffffffff1614610f1c576040517f08c379a0000000000000000000000000000000000000000000000000000000008152600401610f1390611eeb565b60405180910390fd5b600654898985604051602001610f34939291906121f2565b6040516020818303038152906040528051906020012014610f8a576040517f08c379a0000000000000000000000000000000000000000000000000000000008152600401610f8190612268565b60405180910390fd5b888860079182610f9b9291906120c2565b50868660089182610fad9291906120c2565b50848460099182610fbf9291906120c2565b50505050505050505050565b60098054610fd890611b76565b80601f016020809104026020016040519081016040528092919081815260200182805461100490611b76565b80156110515780601f1061102657610100808354040283529160200191611051565b820191906000526020600020905b81548152906001019060200180831161103457829003601f168201915b505050505081565b60008054906101000a900473ffffffffffffffffffffffffffffffffffffffff1681565b600360019054906101000a900467ffffffffffffffff1667ffffffffffffffff164210156110e0576040517f08c379a00000000000000000000000000000000000000000000000000000000081526004016110d7906122d4565b60405180910390fd5b600360099054906101000a900467ffffffffffffffff1667ffffffffffffffff16421115611143576040517f08c379a000000000000000000000000000000000000000000000000000000000815260040161113a90612340565b60405180910390fd5b81600b60008373ffffffffffffffffffffffffffffffffffffffff1673ffffffffffffffffffffffffffffffffffffffff168152602001908152602001600020819055505050565b600b6020528060005260406000206000915090505481565b8686600191826111b49291906123c6565b508484600291826111c69291906123c6565b5081600360096101000a81548167ffffffffffffffff021916908367ffffffffffffffff16021790555082600360016101000a81548167ffffffffffffffff021916908367ffffffffffffffff16021790555080600360006101000a81548160ff021916908360ff16021790555050505050505050565b600b60008273ffffffffffffffffffffffffffffffffffffffff1673ffffffffffffffffffffffffffffffffffffffff16815260200190815260200160002054848484604051602001611292939291906121f2565b60405160208183030381529060405280519060200120146112e8576040517f08c379a00000000000000000000000000000000000000000000000000000000081526004016112df906124e2565b60405180910390fd5b8383600a60008473ffffffffffffffffffffffffffffffffffffffff1673ffffffffffffffffffffffffffffffffffffffff16815260200190815260200160002091826113369291906120c2565b5050505050565b6005805461134a90611b76565b80601f016020809104026020016040519081016040528092919081815260200182805461137690611b76565b80156113c35780601f10611398576101008083540402835291602001916113c3565b820191906000526020600020905b8154815290600101906020018083116113a657829003601f168201915b505050505081565b600360009054906101000a900460ff1681565b60065481565b600a602052806000526040600020600091509050805461140390611b76565b80601f016020809104026020016040519081016040528092919081815260200182805461142f90611b76565b801561147c5780601f106114515761010080835404028352916020019161147c565b820191906000526020600020905b81548152906001019060200180831161145f57829003601f168201915b505050505081565b600080fd5b600080fd5b600073ffffffffffffffffffffffffffffffffffffffff82169050919050565b60006114b98261148e565b9050919050565b6114c9816114ae565b81146114d457600080fd5b50565b6000813590506114e6816114c0565b92915050565b60006020828403121561150257611501611484565b5b6000611510848285016114d7565b91505092915050565b600081519050919050565b600082825260208201905092915050565b60005b83811015611553578082015181840152602081019050611538565b60008484015250505050565b6000601f19601f8301169050919050565b600061157b82611519565b6115858185611524565b9350611595818560208601611535565b61159e8161155f565b840191505092915050565b600060208201905081810360008301526115c38184611570565b905092915050565b600060ff82169050919050565b6115e1816115cb565b82525050565b60006020820190506115fc60008301846115d8565b92915050565b600080fd5b600080fd5b600080fd5b60008083601f84011261162757611626611602565b5b8235905067ffffffffffffffff81111561164457611643611607565b5b6020830191508360018202830111156116605761165f61160c565b5b9250929050565b6000819050919050565b61167a81611667565b811461168557600080fd5b50565b60008135905061169781611671565b92915050565b600080600080600080608087890312156116ba576116b9611484565b5b600087013567ffffffffffffffff8111156116d8576116d7611489565b5b6116e489828a01611611565b9650965050602087013567ffffffffffffffff81111561170757611706611489565b5b61171389828a01611611565b9450945050604061172689828a01611688565b925050606061173789828a016114d7565b9150509295509295509295565b600067ffffffffffffffff82169050919050565b61176181611744565b82525050565b600060208201905061177c6000830184611758565b92915050565b600081519050919050565b600082825260208201905092915050565b60006117a982611782565b6117b3818561178d565b93506117c3818560208601611535565b6117cc8161155f565b840191505092915050565b600060208201905081810360008301526117f1818461179e565b905092915050565b60008060008060008060008060a0898b03121561181957611818611484565b5b600089013567ffffffffffffffff81111561183757611836611489565b5b6118438b828c01611611565b9850985050602089013567ffffffffffffffff81111561186657611865611489565b5b6118728b828c01611611565b9650965050604089013567ffffffffffffffff81111561189557611894611489565b5b6118a18b828c01611611565b945094505060606118b48b828c01611688565b92505060806118c58b828c016114d7565b9150509295985092959890939650565b6118de816114ae565b82525050565b60006020820190506118f960008301846118d5565b92915050565b6000806040838503121561191657611915611484565b5b600061192485828601611688565b9250506020611935858286016114d7565b9150509250929050565b61194881611667565b82525050565b6000602082019050611963600083018461193f565b92915050565b60008083601f84011261197f5761197e611602565b5b8235905067ffffffffffffffff81111561199c5761199b611607565b5b6020830191508360018202830111156119b8576119b761160c565b5b9250929050565b6119c881611744565b81146119d357600080fd5b50565b6000813590506119e5816119bf565b92915050565b6119f4816115cb565b81146119ff57600080fd5b50565b600081359050611a11816119eb565b92915050565b600080600080600080600060a0888a031215611a3657611a35611484565b5b600088013567ffffffffffffffff811115611a5457611a53611489565b5b611a608a828b01611969565b9750975050602088013567ffffffffffffffff811115611a8357611a82611489565b5b611a8f8a828b01611969565b95509550506040611aa28a828b016119d6565b9350506060611ab38a828b016119d6565b9250506080611ac48a828b01611a02565b91505092959891949750929550565b60008060008060608587031215611aed57611aec611484565b5b600085013567ffffffffffffffff811115611b0b57611b0a611489565b5b611b1787828801611611565b94509450506020611b2a87828801611688565b9250506040611b3b878288016114d7565b91505092959194509250565b7f4e487b7100000000000000000000000000000000000000000000000000000000600052602260045260246000fd5b60006002820490506001821680611b8e57607f821691505b602082108103611ba157611ba0611b47565b5b50919050565b7f4e487b7100000000000000000000000000000000000000000000000000000000600052603260045260246000fd5b7f4e487b7100000000000000000000000000000000000000000000000000000000600052602160045260246000fd5b7f756e737570706f72746564207175657374696f6e207479706500000000000000600082015250565b6000611c3b60198361178d565b9150611c4682611c05565b602082019050919050565b60006020820190508181036000830152611c6a81611c2e565b9050919050565b7f696e76616c6964207175657374696f6e20747970650000000000000000000000600082015250565b6000611ca760158361178d565b9150611cb282611c71565b602082019050919050565b60006020820190508181036000830152611cd681611c9a565b9050919050565b7f4e487b7100000000000000000000000000000000000000000000000000000000600052604160045260246000fd5b6000819050919050565b7f4e487b7100000000000000000000000000000000000000000000000000000000600052601160045260246000fd5b6000611d5082611d0c565b9150611d5b83611d0c565b9250828201905080821115611d7357611d72611d16565b5b92915050565b6000611d84826115cb565b9150611d8f836115cb565b9250828202611d9d816115cb565b9150808214611daf57611dae611d16565b5b5092915050565b6000611dc1826115cb565b9150611dcc836115cb565b9250828201905060ff811115611de557611de4611d16565b5b92915050565b6000611df682611d0c565b91507fffffffffffffffffffffffffffffffffffffffffffffffffffffffffffffffff8203611e2857611e27611d16565b5b600182019050919050565b7f6661696c656420746f2070617373206578616d00000000000000000000000000600082015250565b6000611e6960138361178d565b9150611e7482611e33565b602082019050919050565b60006020820190508181036000830152611e9881611e5c565b9050919050565b7f6f6e6c79206f776e657200000000000000000000000000000000000000000000600082015250565b6000611ed5600a8361178d565b9150611ee082611e9f565b602082019050919050565b60006020820190508181036000830152611f0481611ec8565b9050919050565b600082905092915050565b60008190508160005260206000209050919050565b60006020601f8301049050919050565b600082821b905092915050565b600060088302611f787fffffffffffffffffffffffffffffffffffffffffffffffffffffffffffffffff82611f3b565b611f828683611f3b565b95508019841693508086168417925050509392505050565b6000819050919050565b6000611fbf611fba611fb584611d0c565b611f9a565b611d0c565b9050919050565b6000819050919050565b611fd983611fa4565b611fed611fe582611fc6565b848454611f48565b825550505050565b600090565b612002611ff5565b61200d818484611fd0565b505050565b5b8181101561203157612026600082611ffa565b600181019050612013565b5050565b601f8211156120765761204781611f16565b61205084611f2b565b8101602085101561205f578190505b61207361206b85611f2b565b830182612012565b50505b505050565b600082821c905092915050565b60006120996000198460080261207b565b1980831691505092915050565b60006120b28383612088565b9150826002028217905092915050565b6120cc8383611f0b565b67ffffffffffffffff8111156120e5576120e4611cdd565b5b6120ef8254611b76565b6120fa828285612035565b6000601f8311600181146121295760008415612117578287013590505b61212185826120a6565b865550612189565b601f19841661213786611f16565b60005b8281101561215f5784890135825560018201915060208501945060208101905061213a565b8683101561217c5784890135612178601f891682612088565b8355505b6001600288020188555050505b50505050505050565b600081905092915050565b82818337600083830152505050565b60006121b88385612192565b93506121c583858461219d565b82840190509392505050565b6000819050919050565b6121ec6121e782611667565b6121d1565b82525050565b60006121ff8285876121ac565b915061220b82846121db565b602082019150819050949350505050565b7f696e76616c696420636f727265637420616e737765722e000000000000000000600082015250565b600061225260178361178d565b915061225d8261221c565b602082019050919050565b6000602082019050818103600083015261228181612245565b9050919050565b7f6e6f742073746172740000000000000000000000000000000000000000000000600082015250565b60006122be60098361178d565b91506122c982612288565b602082019050919050565b600060208201905081810360008301526122ed816122b1565b9050919050565b7f616c726561647920656e6465642e000000000000000000000000000000000000600082015250565b600061232a600e8361178d565b9150612335826122f4565b602082019050919050565b600060208201905081810360008301526123598161231d565b9050919050565b600082905092915050565b60008190508160005260206000209050919050565b601f8211156123c1576123928161236b565b61239b84611f2b565b810160208510156123aa578190505b6123be6123b685611f2b565b830182612012565b50505b505050565b6123d08383612360565b67ffffffffffffffff8111156123e9576123e8611cdd565b5b6123f38254611b76565b6123fe828285612380565b6000601f83116001811461242d576000841561241b578287013590505b61242585826120a6565b86555061248d565b601f19841661243b8661236b565b60005b828110156124635784890135825560018201915060208501945060208101905061243e565b86831015612480578489013561247c601f891682612088565b8355505b6001600288020188555050505b50505050505050565b7f696e76616c696420616e73776572732e00000000000000000000000000000000600082015250565b60006124cc60108361178d565b91506124d782612496565b602082019050919050565b600060208201905081810360008301526124fb816124bf565b905091905056fea26469706673582212200a51b1d8cab5e72647cce8f66adc22eb62844d2b922c5738a3bf657cd47ab2fb64736f6c63430008180033",
  "linkReferences": {},
  "deployedLinkReferences": {}
}